{
  "contractName": "Auction",
  "abi": [
    {
      "inputs": [
        {
          "internalType": "address",
          "name": "_owner",
          "type": "address"
        },
        {
          "internalType": "uint256",
          "name": "_start",
          "type": "uint256"
        },
        {
          "internalType": "uint256",
          "name": "_end",
          "type": "uint256"
        },
        {
          "internalType": "uint256",
          "name": "_minBid",
          "type": "uint256"
        },
        {
          "internalType": "string",
          "name": "_ipfsHash",
          "type": "string"
        }
      ],
      "stateMutability": "nonpayable",
      "type": "constructor"
    },
    {
      "anonymous": false,
      "inputs": [
        {
          "indexed": false,
          "internalType": "address",
          "name": "bidder",
          "type": "address"
        },
        {
          "indexed": false,
          "internalType": "uint256",
          "name": "bid",
          "type": "uint256"
        },
        {
          "indexed": false,
          "internalType": "bool",
          "name": "isHighest",
          "type": "bool"
        }
      ],
      "name": "LogBid",
      "type": "event"
    },
    {
      "inputs": [],
      "name": "auctionEnd",
      "outputs": [
        {
          "internalType": "uint256",
          "name": "",
          "type": "uint256"
        }
      ],
      "stateMutability": "view",
      "type": "function",
      "constant": true
    },
    {
      "inputs": [],
      "name": "auctionStart",
      "outputs": [
        {
          "internalType": "uint256",
          "name": "",
          "type": "uint256"
        }
      ],
      "stateMutability": "view",
      "type": "function",
      "constant": true
    },
    {
      "inputs": [
        {
          "internalType": "address",
          "name": "",
          "type": "address"
        }
      ],
      "name": "fundsByBidder",
      "outputs": [
        {
          "internalType": "uint256",
          "name": "",
          "type": "uint256"
        }
      ],
      "stateMutability": "view",
      "type": "function",
      "constant": true
    },
    {
      "inputs": [],
      "name": "ipfsHash",
      "outputs": [
        {
          "internalType": "string",
          "name": "",
          "type": "string"
        }
      ],
      "stateMutability": "view",
      "type": "function",
      "constant": true
    },
    {
      "inputs": [],
      "name": "minimumBid",
      "outputs": [
        {
          "internalType": "uint256",
          "name": "",
          "type": "uint256"
        }
      ],
      "stateMutability": "view",
      "type": "function",
      "constant": true
    },
    {
      "inputs": [],
      "name": "owner",
      "outputs": [
        {
          "internalType": "address",
          "name": "",
          "type": "address"
        }
      ],
      "stateMutability": "view",
      "type": "function",
      "constant": true
    },
    {
      "inputs": [],
      "name": "placeBid",
      "outputs": [
        {
          "internalType": "bool",
          "name": "success",
          "type": "bool"
        }
      ],
      "stateMutability": "payable",
      "type": "function",
      "payable": true
    },
    {
      "inputs": [],
      "name": "withdraw",
      "outputs": [
        {
          "internalType": "bool",
          "name": "success",
          "type": "bool"
        }
      ],
      "stateMutability": "nonpayable",
      "type": "function"
    }
  ],
  "bytecode": "0x60806040523480156200001157600080fd5b506040516200134b3803806200134b83398181016040528101906200003791906200047e565b8284108015620000745750600073ffffffffffffffffffffffffffffffffffffffff168573ffffffffffffffffffffffffffffffffffffffff1614155b62000084576200008362000525565b5b6000821162000098576200009762000525565b5b846000806101000a81548173ffffffffffffffffffffffffffffffffffffffff021916908373ffffffffffffffffffffffffffffffffffffffff16021790555083600181905550826002819055508060049080519060200190620000fe92919062000191565b508160038190555060006005819055506000600660006101000a81548173ffffffffffffffffffffffffffffffffffffffff021916908373ffffffffffffffffffffffffffffffffffffffff1602179055506000600860006101000a81548160ff0219169083151502179055506000600860016101000a81548160ff0219169083151502179055505050505050620005b9565b8280546200019f9062000583565b90600052602060002090601f016020900481019282620001c357600085556200020f565b82601f10620001de57805160ff19168380011785556200020f565b828001600101855582156200020f579182015b828111156200020e578251825591602001919060010190620001f1565b5b5090506200021e919062000222565b5090565b5b808211156200023d57600081600090555060010162000223565b5090565b6000604051905090565b600080fd5b600080fd5b600073ffffffffffffffffffffffffffffffffffffffff82169050919050565b6000620002828262000255565b9050919050565b620002948162000275565b8114620002a057600080fd5b50565b600081519050620002b48162000289565b92915050565b6000819050919050565b620002cf81620002ba565b8114620002db57600080fd5b50565b600081519050620002ef81620002c4565b92915050565b600080fd5b600080fd5b6000601f19601f8301169050919050565b7f4e487b7100000000000000000000000000000000000000000000000000000000600052604160045260246000fd5b6200034a82620002ff565b810181811067ffffffffffffffff821117156200036c576200036b62000310565b5b80604052505050565b60006200038162000241565b90506200038f82826200033f565b919050565b600067ffffffffffffffff821115620003b257620003b162000310565b5b620003bd82620002ff565b9050602081019050919050565b60005b83811015620003ea578082015181840152602081019050620003cd565b83811115620003fa576000848401525b50505050565b600062000417620004118462000394565b62000375565b905082815260208101848484011115620004365762000435620002fa565b5b62000443848285620003ca565b509392505050565b600082601f830112620004635762000462620002f5565b5b81516200047584826020860162000400565b91505092915050565b600080600080600060a086880312156200049d576200049c6200024b565b5b6000620004ad88828901620002a3565b9550506020620004c088828901620002de565b9450506040620004d388828901620002de565b9350506060620004e688828901620002de565b925050608086015167ffffffffffffffff8111156200050a576200050962000250565b5b62000518888289016200044b565b9150509295509295909350565b7f4e487b7100000000000000000000000000000000000000000000000000000000600052600160045260246000fd5b7f4e487b7100000000000000000000000000000000000000000000000000000000600052602260045260246000fd5b600060028204905060018216806200059c57607f821691505b60208210811415620005b357620005b262000554565b5b50919050565b610d8280620005c96000396000f3fe60806040526004361061007b5760003560e01c8063c623674f1161004e578063c623674f1461012c578063ce10cf8014610157578063d3a8638614610194578063ecfc7ecc146101bf5761007b565b80632a24f46c146100805780633ccfd60b146100ab5780634f245ef7146100d65780638da5cb5b14610101575b600080fd5b34801561008c57600080fd5b506100956101dd565b6040516100a29190610a06565b60405180910390f35b3480156100b757600080fd5b506100c06101e3565b6040516100cd9190610a3c565b60405180910390f35b3480156100e257600080fd5b506100eb6106fb565b6040516100f89190610a06565b60405180910390f35b34801561010d57600080fd5b50610116610701565b6040516101239190610a98565b60405180910390f35b34801561013857600080fd5b50610141610725565b60405161014e9190610b4c565b60405180910390f35b34801561016357600080fd5b5061017e60048036038101906101799190610b9f565b6107b3565b60405161018b9190610a06565b60405180910390f35b3480156101a057600080fd5b506101a96107cb565b6040516101b69190610a06565b60405180910390f35b6101c76107d1565b6040516101d49190610a3c565b60405180910390f35b60025481565b600060025443116101f7576101f6610bcc565b5b60008060035460055411801561027b575060008054906101000a900473ffffffffffffffffffffffffffffffffffffffff1673ffffffffffffffffffffffffffffffffffffffff16600660009054906101000a900473ffffffffffffffffffffffffffffffffffffffff1673ffffffffffffffffffffffffffffffffffffffff1614155b80156102d65750600073ffffffffffffffffffffffffffffffffffffffff16600660009054906101000a900473ffffffffffffffffffffffffffffffffffffffff1673ffffffffffffffffffffffffffffffffffffffff1614155b905060008054906101000a900473ffffffffffffffffffffffffffffffffffffffff1673ffffffffffffffffffffffffffffffffffffffff163373ffffffffffffffffffffffffffffffffffffffff1614156103f057600860009054906101000a900460ff161561034a57610349610bcc565b5b80156103d057600554915060055460076000600660009054906101000a900473ffffffffffffffffffffffffffffffffffffffff1673ffffffffffffffffffffffffffffffffffffffff1673ffffffffffffffffffffffffffffffffffffffff16815260200190815260200160002060008282546103c89190610c2a565b925050819055505b6001600860006101000a81548160ff0219169083151502179055506106a6565b600660009054906101000a900473ffffffffffffffffffffffffffffffffffffffff1673ffffffffffffffffffffffffffffffffffffffff163373ffffffffffffffffffffffffffffffffffffffff1614156105cd57600860019054906101000a900460ff161561046457610463610bcc565b5b801561046f576105ad565b600060076000600660009054906101000a900473ffffffffffffffffffffffffffffffffffffffff1673ffffffffffffffffffffffffffffffffffffffff1673ffffffffffffffffffffffffffffffffffffffff16815260200190815260200160002054116104e1576104e0610bcc565b5b60076000600660009054906101000a900473ffffffffffffffffffffffffffffffffffffffff1673ffffffffffffffffffffffffffffffffffffffff1673ffffffffffffffffffffffffffffffffffffffff168152602001908152602001600020549150600060076000600660009054906101000a900473ffffffffffffffffffffffffffffffffffffffff1673ffffffffffffffffffffffffffffffffffffffff1673ffffffffffffffffffffffffffffffffffffffff168152602001908152602001600020819055505b6001600860016101000a81548160ff0219169083151502179055506106a5565b6000600760003373ffffffffffffffffffffffffffffffffffffffff1673ffffffffffffffffffffffffffffffffffffffff168152602001908152602001600020541161061d5761061c610bcc565b5b600760003373ffffffffffffffffffffffffffffffffffffffff1673ffffffffffffffffffffffffffffffffffffffff1681526020019081526020016000205491506000600760003373ffffffffffffffffffffffffffffffffffffffff1673ffffffffffffffffffffffffffffffffffffffff168152602001908152602001600020819055505b5b60008211156106f2573373ffffffffffffffffffffffffffffffffffffffff166108fc839081150290604051600060405180830381858888f193505050506106f1576106f0610bcc565b5b5b60019250505090565b60015481565b60008054906101000a900473ffffffffffffffffffffffffffffffffffffffff1681565b6004805461073290610c8d565b80601f016020809104026020016040519081016040528092919081815260200182805461075e90610c8d565b80156107ab5780601f10610780576101008083540402835291602001916107ab565b820191906000526020600020905b81548152906001019060200180831161078e57829003601f168201915b505050505081565b60076020528060005260406000206000915090505481565b60035481565b600043600254101580156107e757506001544310155b6107f4576107f3610bcc565b5b60008054906101000a900473ffffffffffffffffffffffffffffffffffffffff1673ffffffffffffffffffffffffffffffffffffffff163373ffffffffffffffffffffffffffffffffffffffff16141561085157610850610bcc565b5b600034118015610862575060035434115b61086f5761086e610bcc565b5b600034600760003373ffffffffffffffffffffffffffffffffffffffff1673ffffffffffffffffffffffffffffffffffffffff168152602001908152602001600020546108bc9190610cbf565b9050600760003373ffffffffffffffffffffffffffffffffffffffff1673ffffffffffffffffffffffffffffffffffffffff16815260200190815260200160002054811161090d5761090c610bcc565b5b6000600554821190508015610965578160058190555033600660006101000a81548173ffffffffffffffffffffffffffffffffffffffff021916908373ffffffffffffffffffffffffffffffffffffffff1602179055505b81600760003373ffffffffffffffffffffffffffffffffffffffff1673ffffffffffffffffffffffffffffffffffffffff168152602001908152602001600020819055507f9a010ea014005f1a0d733ccf85b3264b4eb325bf15242acb4a50e62029edf8983383836040516109dc93929190610d15565b60405180910390a160019250505090565b6000819050919050565b610a00816109ed565b82525050565b6000602082019050610a1b60008301846109f7565b92915050565b60008115159050919050565b610a3681610a21565b82525050565b6000602082019050610a516000830184610a2d565b92915050565b600073ffffffffffffffffffffffffffffffffffffffff82169050919050565b6000610a8282610a57565b9050919050565b610a9281610a77565b82525050565b6000602082019050610aad6000830184610a89565b92915050565b600081519050919050565b600082825260208201905092915050565b60005b83811015610aed578082015181840152602081019050610ad2565b83811115610afc576000848401525b50505050565b6000601f19601f8301169050919050565b6000610b1e82610ab3565b610b288185610abe565b9350610b38818560208601610acf565b610b4181610b02565b840191505092915050565b60006020820190508181036000830152610b668184610b13565b905092915050565b600080fd5b610b7c81610a77565b8114610b8757600080fd5b50565b600081359050610b9981610b73565b92915050565b600060208284031215610bb557610bb4610b6e565b5b6000610bc384828501610b8a565b91505092915050565b7f4e487b7100000000000000000000000000000000000000000000000000000000600052600160045260246000fd5b7f4e487b7100000000000000000000000000000000000000000000000000000000600052601160045260246000fd5b6000610c35826109ed565b9150610c40836109ed565b925082821015610c5357610c52610bfb565b5b828203905092915050565b7f4e487b7100000000000000000000000000000000000000000000000000000000600052602260045260246000fd5b60006002820490506001821680610ca557607f821691505b60208210811415610cb957610cb8610c5e565b5b50919050565b6000610cca826109ed565b9150610cd5836109ed565b9250827fffffffffffffffffffffffffffffffffffffffffffffffffffffffffffffffff03821115610d0a57610d09610bfb565b5b828201905092915050565b6000606082019050610d2a6000830186610a89565b610d3760208301856109f7565b610d446040830184610a2d565b94935050505056fea2646970667358221220c046a8fea04416acfb8e54b8ded1d8c781da50566e9ad5f90bf7ceab1c5d11df64736f6c634300080b0033",
  "immutableReferences": {},
  "source": "// SPDX-License-Identifier: MIT\npragma solidity >=0.4.22 <0.9.0;\n\n\ninterface IERC721 {\n\tfunction transferFrom\n\t(\n\t\taddress _from,\n\t\taddress _to,\n\t\tuint _nftId\n\t) external;\n}\n\ncontract Auction \n{\n\t/*IERC721 public immutable nft;\n    uint public immutable nftId;*/\n\taddress public owner;\n\n\t// It is not safe to refer to the timestamps of blocks. Instead, we refer to block numbers for time.\n\tuint public auctionStart;\n\tuint public auctionEnd;\n\tuint public minimumBid;\n\tstring public ipfsHash;\n\n\tuint highestBid;\n\taddress highestBidder;\n\tmapping(address => uint256) public fundsByBidder;\n\n\tbool ownerWithdrawn;\n\tbool winnerWithdrawn;\n\n\tconstructor (address _owner, uint _start, uint _end, uint _minBid, string memory _ipfsHash/*, address _nft, uint _nftId*/) \n\t{\n\t\tassert (_start < _end /*&& _start >= block.number*/ && _owner != address(0));\n\t\tassert (_minBid > 0);\n\n\t\towner = _owner;\n\t\tauctionStart = _start;\n\t\tauctionEnd = _end;\n\t\tipfsHash = _ipfsHash;\n\t\tminimumBid = _minBid;\n\n\t\thighestBid = 0;\n\t\thighestBidder = address(0);\n\n\t\t/*nft = IERC721(_nft);\n\t\tnftId = _nftId;*/\n\n\t\townerWithdrawn = false;\n\t\twinnerWithdrawn = false;\n\t}\n\n\tevent LogBid(address bidder, uint bid, bool isHighest);\n\n\tfunction placeBid() public\n\tpayable\n\tonlyRunning\n\tonlyNotOwner\n\tonlyValidBid\n\treturns (bool success) \n\t{\n\t\tuint newBid = fundsByBidder[msg.sender] + msg.value;\n\t\tassert (newBid > fundsByBidder[msg.sender]);\n\t\tbool isHighest = (newBid > highestBid);\n\n\t\tif (isHighest)\n\t\t{\n\t\t\thighestBid = newBid;\n\t\t\thighestBidder = msg.sender;\n\t\t}\n\n\t\tfundsByBidder[msg.sender] = newBid;\n\t\temit LogBid(msg.sender, newBid, isHighest);\n\t\treturn true;\n\t}\n\n\tfunction withdraw() public\n\tonlyAfterEnding\n\treturns (bool success)\n\t{\n\t\tuint withdrawalAmount = 0;\n\t\tbool isAuctionSuccessful = (highestBid > minimumBid && highestBidder != owner && highestBidder != address(0));\n\n\t\tif (msg.sender == owner)\n\t\t{\n\t\t\tassert (!ownerWithdrawn);\n\n\t\t\t// Success Auction: Gets Highest Bid\n\t\t\tif (isAuctionSuccessful)\n\t\t\t{\n\t\t\t\twithdrawalAmount = highestBid;\n\t\t\t\tfundsByBidder[highestBidder] -= highestBid;\n\t\t\t}\n\t\t\t// Else: Gets NFT Back (nothing to do)\n\n\t\t\townerWithdrawn = true;\n\t\t}\n\t\telse if (msg.sender == highestBidder)\n\t\t{\n\t\t\tassert (!winnerWithdrawn);\n\n\t\t\t// Success Auction: Gets NFT\n\t\t\tif (isAuctionSuccessful)\n\t\t\t{\n\t\t\t\t// nft.transferFrom(owner, msg.sender, nftId);\n\t\t\t\t// uint refund = firstBid - secondBid;\n\n\t\t\t\t// withdrawalAmount = refund;\n\t\t\t\t// fundsByBidder[firstBidder] -= refund;\n\t\t\t}\n\t\t\t// Else: Gets refund\n\t\t\telse\n\t\t\t{\n\t\t\t\tassert (fundsByBidder[highestBidder] > 0);\n\t\t\t\twithdrawalAmount = fundsByBidder[highestBidder];\n\t\t\t\tfundsByBidder[highestBidder] = 0;\n\t\t\t}\n\n\t\t\twinnerWithdrawn = true;\n\t\t}\n\t\t// Others: gets refund\n\t\telse\n\t\t{\n\t\t\tassert (fundsByBidder[msg.sender] > 0);\n\t\t\twithdrawalAmount = fundsByBidder[msg.sender];\n\t\t\tfundsByBidder[msg.sender] = 0;\n\t\t}\n\n\t\tif (withdrawalAmount > 0)\n\t\t{\n\t\t\tassert (payable(msg.sender).send(withdrawalAmount));\n\t\t}\n\n\t\treturn true;\n\t}\n\n\tmodifier onlyRunning \n\t{\n\t\tassert (auctionEnd >= block.number && block.number >= auctionStart);\n\t\t_;\n\t}\n\n\tmodifier onlyValidBid \n\t{\n\t\tassert (msg.value > 0 && msg.value > minimumBid);\n\t\t_;\n\t}\n\n\tmodifier onlyNotOwner \n\t{\n\t\tassert (msg.sender != owner);\n\t\t_;\n\t}\n\t\n\tmodifier onlyAfterEnding\n\t{\n\t\tassert (block.number > auctionEnd);\n\t\t_;\n\t}\n}\n\n",
  "sourcePath": "D:\\Data\\Collections\\Course Handout\\Master II\\dApp\\Midterm\\auction\\contracts\\Auction.sol",
  "compiler": {
    "name": "solc",
    "version": "0.8.11+commit.d7f03943.Emscripten.clang"
  },
  "schemaVersion": "3.4.4",
  "updatedAt": "2022-03-29T16:30:11.524Z",
  "networkType": "ethereum",
  "devdoc": {
    "kind": "dev",
    "methods": {},
    "version": 1
  },
  "userdoc": {
    "kind": "user",
    "methods": {},
    "version": 1
  }
}