{
  "contractName": "Storage",
  "abi": [
    {
      "inputs": [],
      "stateMutability": "nonpayable",
      "type": "constructor"
    },
    {
      "anonymous": false,
      "inputs": [
        {
          "indexed": false,
          "internalType": "uint256",
          "name": "_d",
          "type": "uint256"
        },
        {
          "indexed": false,
          "internalType": "address",
          "name": "sender",
          "type": "address"
        }
      ],
      "name": "putVarEvent",
      "type": "event"
    },
    {
      "inputs": [
        {
          "internalType": "uint256",
          "name": "_d",
          "type": "uint256"
        }
      ],
      "name": "putVar",
      "outputs": [],
      "stateMutability": "nonpayable",
      "type": "function"
    },
    {
      "inputs": [],
      "name": "getVar",
      "outputs": [
        {
          "internalType": "uint256",
          "name": "d",
          "type": "uint256"
        }
      ],
      "stateMutability": "view",
      "type": "function",
      "constant": true
    }
  ],
  "bytecode": "0x608060405234801561001057600080fd5b50600080819055506101f3806100276000396000f3fe608060405234801561001057600080fd5b50600436106100365760003560e01c80631202a71c1461003b578063477a5c9814610057575b600080fd5b610055600480360381019061005091906100fc565b610075565b005b61005f6100b8565b60405161006c9190610138565b60405180910390f35b806000819055507fab7c8c99ae96b1a08f7eaa46f52e5beef10590cf3f2f524b36dbc70223d6f13c81336040516100ad929190610194565b60405180910390a150565b60008054905090565b600080fd5b6000819050919050565b6100d9816100c6565b81146100e457600080fd5b50565b6000813590506100f6816100d0565b92915050565b600060208284031215610112576101116100c1565b5b6000610120848285016100e7565b91505092915050565b610132816100c6565b82525050565b600060208201905061014d6000830184610129565b92915050565b600073ffffffffffffffffffffffffffffffffffffffff82169050919050565b600061017e82610153565b9050919050565b61018e81610173565b82525050565b60006040820190506101a96000830185610129565b6101b66020830184610185565b939250505056fea2646970667358221220bf94976cdc5cd2064d737280a08d023cce709a8c90bb89e7fd1ccb250bc757b864736f6c634300080b0033",
  "immutableReferences": {},
  "source": "pragma solidity >=0.4.22 <0.9.0;\r\n\r\ncontract Storage\r\n{\r\n\tuint data;\r\n\tconstructor ()\r\n\t{\r\n\t\tdata = 0;\r\n\t}\r\n\r\n\tevent putVarEvent(uint _d, address sender);\r\n\r\n\tfunction putVar(uint _d) public\r\n\t{\r\n\t\tdata = _d;\r\n\t\temit putVarEvent(_d, msg.sender);\r\n\t}\r\n\r\n\tfunction getVar() view public returns (uint d)\r\n\t{\r\n\t\treturn data;\r\n\t}\r\n}",
  "sourcePath": "D:\\Data\\Collections\\Course Handout\\Master II\\dApp\\Midterm\\auction\\contracts\\Storage.sol",
  "compiler": {
    "name": "solc",
    "version": "0.8.11+commit.d7f03943.Emscripten.clang"
  },
  "schemaVersion": "3.4.4",
  "updatedAt": "2022-03-29T16:30:11.528Z",
  "networkType": "ethereum",
  "devdoc": {
    "kind": "dev",
    "methods": {},
    "version": 1
  },
  "userdoc": {
    "kind": "user",
    "methods": {},
    "version": 1
  }
}